:100000000C94AB000C94D3000C94D3000C94D3004C
:100010000C94D3000C94D3000C94D3000C94D30014
:100020000C94D3000C94D3000C94D3000C94D30004
:100030000C94D3000C94D3000C94D3000C94D300F4
:100040000C94FA050C94D3000C946A060C944406A4
:100050000C94D3000C94D3000C94D3000C94D300D4
:100060000C94D3000C94D30052657475726E696E53
:100070006720746F2050726576696F7573204D6FBD
:100080006465204661696C7572652E2E2E0053657D
:100090007474696E6720426175647261746520537F
:1000A00075636365737366756C2100456E74657264
:1000B000696E6720436F6E66696775726174696FF8
:1000C0006E204D6F64652053756363657373667549
:1000D0006C2100456E746572696E6720436F6E66B1
:1000E000696775726174696F6E204D6F6465204633
:1000F00061696C7572652E2E2E00000000002300D1
:100100002600290000000000240027002A0000002B
:100110000000250028002B00040404040404040447
:1001200002020202020203030303030301020408A2
:100130001020408001020408102001020408102051
:100140000000000800020100000304070000000096
:10015000000000009C0611241FBECFEFD8E0DEBFD8
:10016000CDBF12E0A0E0B1E0E6EDF9E102C00590FC
:100170000D92A233B107D9F723E0A2E3B2E001C0A8
:100180001D92AA31B207E1F710E0CBEAD0E004C03B
:100190002197FE010E94E30CCA3AD107C9F70E94D9
:1001A000DC060C94E90C0C9400008CBD9DBD0895F8
:1001B00080E480937C0080917A00806480937A0050
:1001C00080917A0086FDFCCF809178009091790033
:1001D0000895833081F028F4813099F08230A9F0BD
:1001E00008958730A9F08830C9F08430B1F4809147
:1001F00080008F7D03C0809180008F778093800086
:10020000089584B58F7784BD089584B58F7DFBCF25
:100210008091B0008F778093B00008958091B000F6
:100220008F7DF9CF1F93CF93DF93282F30E0F90113
:10023000E05CFE4F8491F901E45DFE4FD491F90139
:10024000E85EFE4FC491CC23A9F0162F81110E94C5
:10025000E900EC2FF0E0EE0FFF1FE25FFE4FA591EB
:10026000B4918FB7F894EC91111108C0D095DE23AA
:10027000DC938FBFDF91CF911F910895DE2BF8CFD4
:10028000CF93DF9390E0FC01E45DFE4F2491885E04
:100290009E4FFC0184918823D1F090E0880F991F34
:1002A000FC01EC5FFE4FA591B491FC01E25FFE4FB3
:1002B000C591D49161110EC09FB7F8948C91E22F33
:1002C000E0958E238C932881E223E8839FBFDF9102
:1002D000CF9108958FB7F894EC91E22BEC938FBFF8
:1002E000F6CF3FB7F8948091640290916502A09197
:1002F0006602B091670226B5A89B05C02F3F19F092
:100300000196A11DB11D3FBFBA2FA92F982F882795
:10031000BC01CD01620F711D811D911D42E0660F70
:10032000771F881F991F4A95D1F708958F929F9242
:10033000AF92BF92CF92DF92EF92FF924B015C019E
:100340000E9471016B017C010E9471016C197D0991
:100350008E099F09683E734081059105A8F321E04D
:10036000821A9108A108B10888EEC80E83E0D81E51
:10037000E11CF11C81149104A104B10429F7FF9040
:10038000EF90DF90CF90BF90AF909F908F900895A7
:100390002FB7F894609160027091610280916202BF
:1003A000909163022FBF0895AF92BF92CF92DF92D8
:1003B000EF92FF920F931F93CF93DF936C017B011A
:1003C0008B01040F151FEB015E01AE18BF08C017AB
:1003D000D10759F06991D601ED91FC910190F0811E
:1003E000E02DC6010995892B79F7C501DF91CF91E1
:1003F0001F910F91FF90EF90DF90CF90BF90AF9043
:100400000895FC01538D448D252F30E0842F90E01A
:10041000821B930B541710F0CF96089501970895FF
:10042000FC01918D828D981761F0A28DAE0FBF2FC8
:10043000B11D5D968C91928D9F5F9F73928F90E01E
:1004400008958FEF9FEF0895FC01918D828D98178D
:1004500031F0828DE80FF11D858D90E008958FEFCA
:100460009FEF0895FC01918D228D892F90E0805C93
:100470009F4F821B91098F739927089588E692E018
:100480000E94320221E0892B09F420E0822F089596
:1004900080E090E0892B29F00E943E0281110C94AB
:1004A00000000895FC01A48DA80FB92FB11DA35A17
:1004B000BF4F2C91848D90E001968F739927848F84
:1004C000A689B7892C93A089B1898C9183708064A7
:1004D0008C93938D848D981306C00288F389E02D48
:1004E00080818F7D80830895EF92FF920F931F93F9
:1004F000CF93DF93EC0181E0888F9B8D8C8D9813D7
:100500001AC0E889F989808185FF15C09FB7F894E2
:10051000EE89FF896083E889F9898081837080642E
:1005200080839FBF81E090E0DF91CF911F910F9179
:10053000FF90EF900895F62E0B8D10E00F5F1F4F88
:100540000F731127E02E8C8D8E110CC00FB607FC97
:10055000FACFE889F989808185FFF5CFCE010E9425
:100560005202F1CFEB8DEC0FFD2FF11DE35AFF4F3F
:10057000F0829FB7F8940B8FEA89FB8980818062B3
:10058000CFCFCF93DF93EC01888D8823B9F0AA8970
:10059000BB89E889F9898C9185FD03C0808186FD3E
:1005A0000DC00FB607FCF7CF8C9185FFF2CF80818D
:1005B00085FFEDCFCE010E945202E9CFDF91CF91AE
:1005C000089508958EBD00000DB407FEFDCF8EB5D1
:1005D00008951F93CF93DF93182F80E591E00E9439
:1005E000D500C6E0D3E060E08A890E94120183E072
:1005F0000E94E202812F0E94E20280E00E94E20259
:10060000182F61E08A890E941201812FDF91CF911A
:100610001F910895FF920F931F93CF93DF93F82EAE
:10062000062F142F80E591E00E94D500C6E0D3E0AC
:1006300060E08A890E94120185E00E94E2028F2D0B
:100640000E94E202802F0E94E202812F0E94E202B9
:1006500061E08A89DF91CF911F910F91FF900C94F7
:100660001201CF93DF93C82F0E94C801D62F4C2FC1
:1006700060EE8FE00E940A038EE00E94E902807E15
:10068000C81749F00E94C8016D1B693C80F381E0E6
:10069000DF91CF91089580E0FBCFCF93DF93C82FF8
:1006A0008EE00E94E902807E8032F9F4C032E9F0E7
:1006B0008BE20E94E902D82FD07486FD05C040E489
:1006C00060E48BE20E940A0340E460E48CE20E9452
:1006D0000A0380E60E943103811111C0D11105C0C7
:1006E00040E060E48BE20E940A0340E060E48CE2B8
:1006F0000E940A038C2FDF91CF910C94310381E08B
:10070000DF91CF9108950F931F93CF93DF93082F1D
:10071000162F80E591E00E94D500C6E0D3E060E0AE
:100720008A890E94120182E00E94E202802F0E94C8
:10073000E202812F0E94E20261E08A89DF91CF917B
:100740001F910F910C941201FF920F931F93CF935F
:10075000DF93C82FF62E172F042F80E591E00E941B
:10076000D50060E0809118030E94120182E00E948F
:10077000E2028C2F0E94E202CF2DD12F0C0F1D2FF1
:10078000111DC017D10721F089910E94E202F9CF13
:1007900061E080911803DF91CF911F910F91FF903D
:1007A0000C941201CF93DF9300D000D0CDB7DEB709
:1007B0001C821B82613081F498E09A83198244E0A4
:1007C000BE016F5F7F4F0E94A4030F900F900F90A8
:1007D0000F90DF91CF9108951A82F0CF2F923F9220
:1007E0004F925F926F927F928F929F92AF92CF9231
:1007F000DF92EF92FF920F931F93CF93DF9300D07E
:1008000000D0CDB7DEB70E9471012B013C01809072
:10081000000190900101A09002011E0124E0220E2F
:10082000311C89829A82AB82CE0101966C01F82E2E
:100830000D2DF60111916F01812F0E94E90283FDB8
:1008400014C01F5FE12C0E947101DC01CB018419EF
:100850009509A609B709F2E0EF120EC0843C994051
:10086000A105B105F0F206E07DC0C214D30409F77A
:1008700010E072E0E72EE7CF843C9940A105B10576
:1008800090F740910B036CE073E085E0810F0E94CC
:10089000A40380911403813029F480910B038064B8
:1008A00080930B0360910B0384E0810F0E9483030C
:1008B00040910703509108036091090370910A0366
:1008C000809106038130D9F54C835B83AB016627A9
:1008D0007727842F83708860942F990F990F990F31
:1008E000907E892B8A8365E0569547956A95E1F756
:1008F000498344E06F2D702F812F0E94A403115073
:1009000048E068E0812F0E940A030E9471016B0198
:100910007C01812F0E94E902082F08700E9471015A
:10092000DC01CB018C199D09AE09BF090023A9F098
:10093000843C9940A105B10560F307E013C0CA01EA
:1009400023E0969587952A95E1F789834295440F90
:10095000407E4A831C821B82CCCF843C9940A105F7
:10096000B10558F7802F0F900F900F900F90DF91E7
:10097000CF911F910F91FF90EF90DF90CF90AF90AC
:100980009F908F907F906F905F904F903F902F90AF
:100990000895FF920F931F93CF93DF93C82FF62EE6
:1009A000172F042F80E591E00E94D50060E0809130
:1009B00018030E94120183E00E94E2028C2F0E9421
:1009C000E202CF2DD12F0C0F1D2F111DC017D10703
:1009D00029F080E00E94E2028993F8CF61E08091E3
:1009E0001803DF91CF911F910F91FF900C9412018A
:1009F0000F931F93CF93DF9300D000D0CDB7DEB716
:100A0000182F1092060310920703109208031092F9
:100A1000090310920A0344E0BE016F5F7F4F0E94FA
:100A2000C9042A81898138E0839FC0011124422FA3
:100A300050E065E0559547956A95E1F7840F951F5D
:100A4000092E000CAA0BBB0B80930703909308039D
:100A5000A0930903B0930A0323FF29C032E0880F53
:100A6000991FAA1FBB1F3A95D1F72370820F911DC2
:100A7000A11DB11DBA2FA92F982F88272B81820F76
:100A8000911DA11DB11DBA2FA92F982F88272C8148
:100A9000820F911DA11DB11D809307039093080340
:100AA000A0930903B0930A0381E0809306038FEFBC
:100AB000810F0E94E902082F84E0810F0E94E90261
:100AC00003FF16C091E090931403482F4F7040939A
:100AD0000B036CE073E085E0810F0E94C9040F9066
:100AE0000F900F900F90DF91CF911F910F9108956C
:100AF00010921403EACFFC0101900020E9F731972E
:100B0000AF01481B590BBC0188E692E00C94D4015C
:100B10008F929F92AF92BF920F931F93CF93DF93C9
:100B2000CDB7DEB7A1970FB6F894DEBF0FBECDBF2D
:100B300019A2423008F44AE08E010F5D1F4F842E47
:100B4000912CB12CA12CA50194010E94C10CE62F7F
:100B5000B901CA01EA30F4F4E05DD801EE938D01E9
:100B6000232B242B252B79F790E080E0109719F0A8
:100B7000CD010E947B05A1960FB6F894DEBF0FBE93
:100B8000CDBFDF91CF911F910F91BF90AF909F90FC
:100B90008F900895E95CE1CF0F931F93CF93DF937C
:100BA0008C01D0E0C0E0F801EC0FFD1F64916623DA
:100BB00041F088E692E00E947402892B11F02196A0
:100BC000F2CF85E191E00E947B058C0F9D1FDF91A4
:100BD000CF911F910F910895CF93DF930E947B05D2
:100BE000EC0185E191E00E947B058C0F9D1FDF9158
:100BF000CF9108951F920F920FB60F9211242F9349
:100C00003F938F939F93AF93BF9380916002909196
:100C10006102A0916202B091630230915F0223E011
:100C2000230F2D3758F50196A11DB11D20935F02AA
:100C30008093600290936102A0936202B09363027A
:100C40008091640290916502A0916602B091670262
:100C50000196A11DB11D8093640290936502A0933B
:100C60006602B0936702BF91AF919F918F913F91C0
:100C70002F910F900FBE0F901F90189526E8230F0D
:100C80000296A11DB11DD2CF1F920F920FB60F92E7
:100C900011242F933F934F935F936F937F938F9381
:100CA0009F93AF93BF93EF93FF9388E692E00E94E8
:100CB0005202FF91EF91BF91AF919F918F917F91E0
:100CC0006F915F914F913F912F910F900FBE0F90B9
:100CD0001F9018951F920F920FB60F9211242F9309
:100CE0008F939F93EF93FF93E0917802F0917902B5
:100CF0008081E0917E02F0917F0282FD1BC0908195
:100D0000809181028F5F8F7320918202821741F060
:100D1000E0918102F0E0E859FD4F958F80938102C8
:100D2000FF91EF919F918F912F910F900FBE0F9098
:100D30001F9018958081F4CFCF93DF93E8E6F2E01F
:100D40001382128288EE93E0A0E0B0E08483958362
:100D5000A683B78387E091E09183808385EC90E060
:100D60009587848784EC90E09787868780EC90E075
:100D7000918B808B81EC90E0938B828B82EC90E066
:100D8000958B848B86EC90E0978B868B118E128EE0
:100D9000138E148EC6E0D3E08AE08A8B61E00E9455
:100DA000120161E08A890E94400185E093E0998BFD
:100DB000888BDF91CF910895789484B5826084BD4B
:100DC00084B5816084BD85B5826085BD85B581604F
:100DD00085BD80916E00816080936E0010928100CD
:100DE0008091810082608093810080918100816088
:100DF0008093810080918000816080938000809149
:100E0000B10084608093B1008091B00081608093D4
:100E1000B00080917A00846080937A0080917A009B
:100E2000826080937A0080917A00816080937A005A
:100E300080917A00806880937A001092C100E091DE
:100E40007802F091790282E08083E0917402F0915F
:100E500075021082E0917602F091770280E1808342
:100E600010928002E0917C02F0917D0286E0808306
:100E7000E0917A02F0917B02808180618083E09131
:100E80007A02F0917B02808188608083E0917A020F
:100E9000F0917B02808180688083E0917A02F091FA
:100EA0007B0280818F7D808352E2C52E51E0D52E5A
:100EB00006E311E060E4E62EFFB6F894809132027A
:100EC000811125C0F6018491F8019491E82FF0E09A
:100ED000EE0FFF1FEC5FFE4FA591B4918C9198230C
:100EE00021F461E08AE00E94120161E08AE00E9440
:100EF00040018CB580618CBD8CB580648CBD61E097
:100F00008DE00E94400161E08BE00E9440018091F1
:100F100032028F5F80933202FFBE80E591E00E9433
:100F2000D50060E0809118030E94120180EC0E94BD
:100F3000E20261E0809118030E94120165E070E016
:100F400080E090E00E949601E092190380E80E9400
:100F50004D03882379F083ED90E00E94CC0589E071
:100F600092E00E94EC0568EC70E080E090E00E9466
:100F70009601A2CF8BEA90E00E94CC0560E08AE265
:100F80000E94830361ED89E20E94830361E888E2A5
:100F90000E9483038EE890E00E94CC0561E080E22D
:100FA0000E94D20361E084E20E94D20361E080E00B
:100FB0000E94D20360E084E00E94D20361E088E0F6
:100FC0000E94D20360E080E10E94D20361E084E1EC
:100FD0000E94D20360E088E10E94D203C0E360E097
:100FE0008C2F0E94830360E080E18C0F0E948303BA
:100FF00060E080E28C0F0E948303CF5FCE3379F7ED
:1010000060E080E60E94830360E080E70E94830343
:1010100063E08BE20E9483036CE38CE00E94830315
:1010200060E08DE00E94830344E664E680E60E946F
:101030000A0340E660E680E70E940A0380911903F4
:101040000E944D03882309F46AC288E690E085CFA8
:1010500081110E94E900EF2DF0E0EE0FFF1FE65036
:10106000FF4FA591B4918C91E82209F407C110912A
:101070005202111177C10E94D800BC01990F880B50
:10108000990B0E94C80B21E83EE34AEF50E40E940E
:10109000540C0E94900B7093510260935002109276
:1010A0004C0210924D0210924E0210924F0260912B
:1010B00050027091510270934402609345021111E5
:1010C000E5C1109243028091430280933B020E944B
:1010D000C8012091370230913802621B730B6436CD
:1010E00071050CF45FC081E091E0A0E0B0E0809376
:1010F000070390930803A0930903B0930A03109287
:1011000014031092060388E080930B03E4E4F2E0FA
:10111000ACE0B3E081918D932E163F06D9F70E9483
:10112000EE038111F2C188E191E00E94EC0587E3B2
:1011300091E00E947B05809144029091450298279E
:10114000892798276C01092E000CEE08FF0897FFED
:10115000D8C16DE288E692E00E9474026627772784
:10116000CB016C197D098E099F094AE00E94880510
:1011700081E491E00E94EC0581EA91E00E94EC0597
:1011800086E491E00E94EC0581EA91E00E94EC0582
:101190000E94C8016093370270933802809339022D
:1011A00090933A020E94C801209133023091340298
:1011B000621B730B6A3F71050CF446C04092070333
:1011C000509208036092090370920A03109214036C
:1011D0001092060388E080930B03EBE3F2E0ACE0AF
:1011E000B3E081918D93CE17DF07D9F70E94EE030C
:1011F000811190C184E791E00E94EC0586E991E0BD
:101200000E947B0560913B0270E090E080E04AE044
:101210000E94880583EA91E00E94EC0581EA91E052
:101220000E94EC0586E491E00E94EC0581EA91E0E1
:101230000E94EC050E94C80160933302709334024F
:101240008093350290933602A0E0B0E0AB2B59F0CA
:101250000E943E0281110E9400003CE4232E32E0F5
:10126000332EC3E4D2E0E2E4F1E08491EEE2F1E077
:10127000E490EAE1F1E0F490F110EACE80E591E04B
:101280000E94D50060E0809118030E94120180EA5C
:101290000E94E20280E00E94E202182F61E0809149
:1012A00018030E94120110FF55C081E60E94F80445
:1012B00040E061E08CE20E940A03809106038823EB
:1012C00089F08091070390910803A0910903B091E0
:1012D0000A03B0688093070390930803A09309035F
:1012E000B0930A0380911403882389F08091070347
:1012F00090910803A0910903B0910A03B064809310
:10130000070390930803A0930903B0930A03809105
:10131000070390910803A0910903B0910A038093F9
:101320005B0290935C02A0935D02B0935E02809199
:101330000B0380935A02ACE0B3E0E2E5F2E090E008
:101340009F0122553240281739070CF090CE2D917D
:101350002193F6CF11FF8BCE81E70E94F80440E085
:1013600062E0A8CF113009F50E94D800BC01990FA6
:10137000880B990B0E94C80B2CE63EE34AE750E429
:101380000E94540C0E94900B709351026093500283
:1013900088EB9EE1A5E7B0E480934C0290934D0268
:1013A000A0934E02B0934F0282CE1230C9F40E9435
:1013B000D800BC01990F880B990B0E94C80B25E837
:1013C00035E246E950E40E94540C0E94900B709361
:1013D0005102609350028DE39AE0A7E1B0E4DCCFC4
:1013E0001330C9F40E94D800BC01990F880B990BE7
:1013F0000E94C80B2FEB3BE24FEA50E40E94540CD2
:101400000E94900B70935102609350028CEE91E514
:10141000A8EDBFE3C1CF1430C9F40E94D800BC01CD
:10142000990F880B990B0E94C80B2CE032E348EC13
:1014300050E40E94540C0E94900B709351026093F0
:10144000500284E19EEAA7EABFE3A6CF153009F077
:101450002ECE0E94D800BC01990F880B990B0E94D8
:10146000C80B27E438E341EE50E40E94540C0E947C
:10147000900B709351026093500280924C029092B4
:101480004D02A0924E02B0924F0211CE90E080E049
:101490000E94C60B29E739EE46EA5EE30E94540C2F
:1014A0002FE632E143E85AE30E94540C9B01AC0161
:1014B0000E94B20A2BED3FE049E450E40E94540C34
:1014C00020E030E040E752E40E94540C6B017C01C4
:1014D00023E333E343E650E460914C0270914D0204
:1014E00080914E0290914F020E94540C9B01AC01DE
:1014F000C701B6010E941E0B0E94970B6093430226
:10150000E2CD4AE0C701B60131CE84E591E00E9408
:10151000EC0548CE89EA91E00E94EC0595CE8CEC72
:1015200091E00E94EC051092190380E00E944D03A7
:1015300060E082E00E94400186EE91E00E94EC05AE
:1015400060E08EE00E94400182E0482E55245394D2
:10155000612C712C812C912C90E8A92E9FE3B92E3F
:101560007CCE5058BB27AA270E94C90A0C941A0C9B
:101570000E940C0C38F00E94130C20F039F49F3FAD
:1015800019F426F40C94090C0EF4E095E7FB0C9486
:10159000030CE92F0E942B0C58F3BA17620773074C
:1015A0008407950720F079F4A6F50C944D0C0EF401
:1015B000E0950B2EBA2FA02D0B01B90190010C0163
:1015C000CA01A0011124FF27591B99F0593F50F47B
:1015D000503E68F11A16F040A22F232F342F4427D3
:1015E000585FF3CF469537952795A795F0405395CB
:1015F000C9F77EF41F16BA0B620B730B840BBAF09B
:101600009150A1F0FF0FBB1F661F771F881FC2F705
:101610000EC0BA0F621F731F841F48F48795779519
:101620006795B795F7959E3F08F0B0CF9395880FD3
:1016300008F09927EE0F9795879508950E94320B31
:101640000C941A0C0E94130C58F00E940C0C40F0E1
:1016500029F45F3F29F00C94030C51110C944E0CAB
:101660000C94090C0E942B0C68F39923B1F35523B9
:1016700091F3951B550BBB27AA27621773078407A5
:1016800038F09F5F5F4F220F331F441FAA1FA9F33B
:1016900035D00E2E3AF0E0E832D091505040E69529
:1016A000001CCAF72BD0FE2F29D0660F771F881F8A
:1016B000BB1F261737074807AB07B0E809F0BB0B7D
:1016C000802DBF01FF2793585F4F3AF09E3F510591
:1016D00078F00C94030C0C944E0C5F3FE4F3983EAE
:1016E000D4F3869577956795B795F7959F5FC9F77A
:1016F000880F911D9695879597F90895E1E0660FFB
:10170000771F881FBB1F621773078407BA0720F073
:10171000621B730B840BBA0BEE1F88F7E0950895DC
:101720000E94970B6894B1110C944E0C08950E947E
:10173000330C88F09F5798F0B92F9927B751B0F024
:10174000E1F0660F771F881F991F1AF0BA95C9F745
:1017500014C0B13091F00E944D0CB1E008950C948A
:101760004D0C672F782F8827B85F39F0B93FCCF33D
:10177000869577956795B395D9F73EF490958095C2
:10178000709561957F4F8F4F9F4F0895E89409C0E2
:1017900097FB3EF490958095709561957F4F8F4FA4
:1017A0009F4F9923A9F0F92F96E9BB279395F695BA
:1017B000879577956795B795F111F8CFFAF4BB0F38
:1017C00011F460FF1BC06F5F7F4F8F4F9F4F16C09C
:1017D000882311F096E911C0772321F09EE8872F26
:1017E000762F05C0662371F096E8862F70E060E0E2
:1017F0002AF09A95660F771F881FDAF7880F96955B
:10180000879597F9089597F99F6780E870E060E001
:1018100008959FEF80EC089500240A941616170689
:1018200018060906089500240A94121613061406D1
:1018300005060895092E0394000C11F4882352F034
:10184000BB0F40F4BF2B11F460FF04C06F5F7F4FEC
:101850008F4F9F4F089557FD9058440F551F59F0D3
:101860005F3F71F04795880F97FB991F61F09F3F8D
:1018700079F087950895121613061406551FF2CFB6
:101880004695F1DF08C0161617061806991FF1CF06
:1018900086957105610508940895E894BB2766272D
:1018A0007727CB0197F908950E94670C0C941A0CC6
:1018B0000E940C0C38F00E94130C20F0952311F0BC
:1018C0000C94030C0C94090C11240C944E0C0E94E3
:1018D0002B0C70F3959FC1F3950F50E0551F629F3D
:1018E000F001729FBB27F00DB11D639FAA27F00D79
:1018F000B11DAA1F649F6627B00DA11D661F829FA0
:101900002227B00DA11D621F739FB00DA11D621F84
:10191000839FA00D611D221F749F3327A00D611DA1
:10192000231F849F600D211D822F762F6A2F112483
:101930009F5750409AF0F1F088234AF0EE0FFF1FB6
:10194000BB1F661F771F881F91505040A9F79E3F0D
:10195000510580F00C94030C0C944E0C5F3FE4F3A3
:10196000983ED4F3869577956795B795F795E79563
:101970009F5FC1F7FE2B880F911D9695879597F96C
:101980000895A1E21A2EAA1BBB1BFD010DC0AA1FC0
:10199000BB1FEE1FFF1FA217B307E407F50720F0D8
:1019A000A21BB30BE40BF50B661F771F881F991F53
:1019B0001A9469F760957095809590959B01AC019C
:1019C000BD01CF010895EE0FFF1F0590F491E02DAA
:0619D0000994F894FFCF1A
:1019D600304050000000007402D4010102C10232FE
:1019E60002100224020D0A004D656E736167656D73
:1019F60020524F544143414F3A205472616E736DE9
:101A060069746964612100524F544143414F3A2041
:101A1600002072706D002D2D2D2D2D2D2D2D2D2D8F
:101A26002D2D2D004572726F206E61207472616ECD
:101A3600736D697373616F20646120524F54414323
:101A4600414F21004D656E736167656D2056454CAB
:101A56004F4349444144453A205472616E736D695F
:101A660074696461210056454C4F434944414445DD
:101A76003A2000206B6D2F68004572726F206E61F0
:101A8600207472616E736D697373616F2064612077
:101A960056454C4F434944414445210043616E201D
:101AA600696E69636961646F20636F6D2073756326
:101AB6006573736F21004D435032353135204C69C3
:101AC6006272617279205265636569766520457830
:101AD600616D706C652E2E2E004572726F207061DE
:101AE600726120696E696369616C697A6172206FDF
:101AF60020636F6E74726F6C61646F722043414E27
:021B06002100BC
:00000001FF
