:100000000C94AB000C94D3000C94D3000C94D3004C
:100010000C94D3000C94D3000C94D3000C94D30014
:100020000C94D3000C94D3000C94D3000C94D30004
:100030000C94D3000C94D3000C94D3000C94D300F4
:100040000C9402050C94D3000C9472050C944C058E
:100050000C94D3000C94D3000C94D3000C94D300D4
:100060000C94D3000C94D30052657475726E696E53
:100070006720746F2050726576696F7573204D6FBD
:100080006465204661696C7572652E2E2E0053657D
:100090007474696E6720426175647261746520537F
:1000A00075636365737366756C2100456E74657264
:1000B000696E6720436F6E66696775726174696FF8
:1000C0006E204D6F64652053756363657373667549
:1000D0006C2100456E746572696E6720436F6E66B1
:1000E000696775726174696F6E204D6F6465204633
:1000F00061696C7572652E2E2E00000000002300D1
:100100002600290000000000240027002A0000002B
:100110000000250028002B00040404040404040447
:1001200002020202020203030303030301020408A2
:100130001020408001020408102001020408102051
:100140000000000800020100000304070000000096
:1001500000000000A40511241FBECFEFD8E0DEBFD1
:10016000CDBF11E0A0E0B1E0E6E2F1E102C0059010
:100170000D92A03BB107D9F722E0A0EBB1E001C09E
:100180001D92A138B207E1F710E0CBEAD0E004C03D
:100190002197FE010E948B08CA3AD107C9F70E9435
:1001A000E4050C9491080C9400008CBD9DBD08954D
:1001B000833081F028F4813099F08230A9F00895DD
:1001C0008730A9F08830C9F08430B1F48091800084
:1001D0008F7D03C0809180008F7780938000089589
:1001E00084B58F7784BD089584B58F7DFBCF8091D2
:1001F000B0008F778093B00008958091B0008F7D1C
:10020000F9CF1F93CF93DF93282F30E0F901E05C03
:10021000FE4F8491F901E45DFE4FD491F901E85E4F
:10022000FE4FC491CC23A9F0162F81110E94D80053
:10023000EC2FF0E0EE0FFF1FE25FFE4FA591B491AF
:100240008FB7F894EC91111108C0D095DE23DC93A0
:100250008FBFDF91CF911F910895DE2BF8CFCF9301
:10026000DF9390E0FC01E45DFE4F2491885E9E4F99
:10027000FC0184918823D1F090E0880F991FFC0144
:10028000EC5FFE4FA591B491FC01E25FFE4FC5917A
:10029000D49161110EC09FB7F8948C91E22FE09534
:1002A0008E238C932881E223E8839FBFDF91CF9137
:1002B00008958FB7F894EC91E22BEC938FBFF6CFB3
:1002C0003FB7F8948091C7019091C801A091C901EE
:1002D000B091CA0126B5A89B05C02F3F19F0019621
:1002E000A11DB11D3FBFBA2FA92F982F8827BC0190
:1002F000CD01620F711D811D911D42E0660F771FB8
:10030000881F991F4A95D1F708958F929F92AF92B7
:10031000BF92CF92DF92EF92FF924B015C010E945D
:1003200060016B017C010E9460016C197D098E09DE
:100330009F09683E734081059105A8F321E0821A68
:100340009108A108B10888EEC80E83E0D81EE11C10
:10035000F11C81149104A104B10429F7FF90EF90DE
:10036000DF90CF90BF90AF909F908F900895AF9205
:10037000BF92CF92DF92EF92FF920F931F93CF9392
:10038000DF936C017B018B01040F151FEB015E01F4
:10039000AE18BF08C017D10759F06991D601ED9189
:1003A000FC910190F081E02DC6010995892B79F728
:1003B000C501DF91CF911F910F91FF90EF90DF90DA
:1003C000CF90BF90AF900895FC01538D448D252FA1
:1003D00030E0842F90E0821B930B541710F0CF96DF
:1003E000089501970895FC01918D828D981761F011
:1003F000A28DAE0FBF2FB11D5D968C91928D9F5F28
:100400009F73928F90E008958FEF9FEF0895FC0106
:10041000918D828D981731F0828DE80FF11D858DB9
:1004200090E008958FEF9FEF0895FC01918D228D4C
:10043000892F90E0805C9F4F821B91098F739927D1
:1004400008958FEC91E00E94150221E0892B09F4B8
:1004500020E0822F089580E090E0892B29F00E940F
:10046000210281110C9400000895FC01A48DA80FB5
:10047000B92FB11DA35ABF4F2C91848D90E00196E6
:100480008F739927848FA689B7892C93A089B18906
:100490008C91837080648C93938D848D981306C0A7
:1004A0000288F389E02D80818F7D80830895EF920B
:1004B000FF920F931F93CF93DF93EC0181E0888F1E
:1004C0009B8D8C8D98131AC0E889F989808185FFEE
:1004D00015C09FB7F894EE89FF896083E889F98990
:1004E00080818370806480839FBF81E090E0DF9192
:1004F000CF911F910F91FF90EF900895F62E0B8DE5
:1005000010E00F5F1F4F0F731127E02E8C8D8E119F
:100510000CC00FB607FCFACFE889F989808185FF06
:10052000F5CFCE010E943502F1CFEB8DEC0FFD2F00
:10053000F11DE35AFF4FF0829FB7F8940B8FEA89C1
:10054000FB8980818062CFCFCF93DF93EC01888DD0
:100550008823B9F0AA89BB89E889F9898C9185FD3E
:1005600003C0808186FD0DC00FB607FCF7CF8C91CC
:1005700085FFF2CF808185FFEDCFCE010E9435024D
:10058000E9CFDF91CF91089508958EBD00000DB49D
:1005900007FEFDCF8EB508951F93CF93DF93182FDD
:1005A00080E591E00E94D500CDE6D2E060E08A8946
:1005B0000E94010183E00E94C502812F0E94C502B2
:1005C00080E00E94C502182F61E08A890E94010123
:1005D000812FDF91CF911F910895FF920F931F9369
:1005E000CF93DF93F82E062F142F80E591E00E9421
:1005F000D500CDE6D2E060E08A890E94010185E065
:100600000E94C5028F2D0E94C502802F0E94C50244
:10061000812F0E94C50261E08A89DF91CF911F91ED
:100620000F91FF900C940101CF93DF93D82F2FB738
:10063000F8948091CB019091CC01A091CD01B09123
:10064000CE012FBFC82F4D2F60EE8FE00E94ED022C
:100650008EE00E94CC02807ED81791F02FB7F894DC
:100660008091CB019091CC01A091CD01B091CE01B0
:100670002FBF8C1B893C38F381E0DF91CF91089527
:1006800080E0FBCFCF93DF93C82F8EE00E94CC0297
:10069000807E8032F9F4C032E9F08BE20E94CC0215
:1006A000D82FD07486FD05C040E460E48BE20E9440
:1006B000ED0240E460E48CE20E94ED0280E60E94DC
:1006C0001403811111C0D11105C040E060E48BE238
:1006D0000E94ED0240E060E48CE20E94ED028C2F6B
:1006E000DF91CF910C94140381E0DF91CF910895B5
:1006F0000F931F93CF93DF93082F162F80E591E080
:100700000E94D500CDE6D2E060E08A890E94010116
:1007100082E00E94C502802F0E94C502812F0E94A4
:10072000C50261E08A89DF91CF911F910F910C94EE
:1007300001011F93CF93DF9300D000D0CDB7DEB778
:10074000182F1C821B82613051F588E08A83198240
:1007500080E591E00E94D50060E080917F020E94D8
:10076000010182E00E94C502812F0E94C502898199
:100770000E94C5028A810E94C5028B810E94C50227
:100780008C810E94C50261E080917F020F900F90E2
:100790000F900F90DF91CF911F910C9401011A825D
:1007A000D6CFFF920F931F93CF93DF93C82FF62ED0
:1007B000172F042F80E591E00E94D50060E0809122
:1007C0007F020E94010183E00E94C5028C2F0E94DB
:1007D000C502CF2DD12F0C0F1D2F111DC017D10712
:1007E00029F080E00E94C5028993F8CF61E08091F2
:1007F0007F02DF91CF911F910F91FF900C94010127
:100800000F931F93CF93DF9300D000D0CDB7DEB707
:10081000182F10926D0210926E0210926F021092B9
:1008200070021092710244E0BE016F5F7F4F0E9420
:10083000D1032A81898138E0839FC0011124422F8E
:1008400050E065E0559547956A95E1F7840F951F4F
:10085000092E000CAA0BBB0B80936E0290936F02C3
:10086000A0937002B093710223FF29C032E0880F79
:10087000991FAA1FBB1F3A95D1F72370820F911DB4
:10088000A11DB11DBA2FA92F982F88272B81820F68
:10089000911DA11DB11DBA2FA92F982F88272C813A
:1008A000820F911DA11DB11D80936E0290936F0266
:1008B000A0937002B093710281E080936D028FEF7C
:1008C000810F0E94CC02082F84E0810F0E94CC028D
:1008D00003FF16C091E090937B02482F4F70409326
:1008E000720263E772E085E0810F0E94D1030F90EE
:1008F0000F900F900F90DF91CF911F910F9108955E
:1009000010927B02EACFFC0101900020E9F73197B9
:10091000AF01481B590BBC018FEC91E00C94B7015F
:100920008F929F92AF92BF920F931F93CF93DF93BB
:10093000CDB7DEB7A1970FB6F894DEBF0FBECDBF1F
:1009400019A2423008F44AE08E010F5D1F4F842E39
:10095000912CB12CA12CA50194010E946908E62FCD
:10096000B901CA01EA30F4F4E05DD801EE938D01DB
:10097000232B242B252B79F790E080E0109719F09A
:10098000CD010E948304A1960FB6F894DEBF0FBE7E
:10099000CDBFDF91CF911F910F91BF90AF909F90EE
:1009A0008F900895E95CE1CF0F931F93CF93DF936E
:1009B0008C01D0E0C0E0F801EC0FFD1F64916623CC
:1009C00041F08FEC91E00E945702892B11F02196A3
:1009D000F2CF82E191E00E9483048C0F9D1FDF9192
:1009E000CF911F910F910895CF93DF930E948304BD
:1009F000EC0182E191E00E9483048C0F9D1FDF9146
:100A0000CF9108951F920F920FB60F9211242F933A
:100A10003F938F939F93AF93BF938091CB0190911E
:100A2000CC01A091CD01B091CE013091C60123E05F
:100A3000230F2D3758F50196A11DB11D2093C60136
:100A40008093CB019093CC01A093CD01B093CE01C4
:100A50008091C7019091C801A091C901B091CA01CC
:100A60000196A11DB11D8093C7019093C801A09369
:100A7000C901B093CA01BF91AF919F918F913F91EE
:100A80002F910F900FBE0F901F90189526E8230FFF
:100A90000296A11DB11DD2CF1F920F920FB60F92D9
:100AA00011242F933F934F935F936F937F938F9373
:100AB0009F93AF93BF93EF93FF938FEC91E00E94CE
:100AC0003502FF91EF91BF91AF919F918F917F91EF
:100AD0006F915F914F913F912F910F900FBE0F90AB
:100AE0001F9018951F920F920FB60F9211242F93FB
:100AF0008F939F93EF93FF93E091DF01F091E001DB
:100B00008081E091E501F091E60182FD1BC09081BA
:100B10008091E8018F5F8F732091E901821741F086
:100B2000E091E801F0E0E153FE4F958F8093E801FA
:100B3000FF91EF919F918F912F910F900FBE0F908A
:100B40001F9018958081F4CFCF93DF93EFECF1E005
:100B50001382128288EE93E0A0E0B0E08483958354
:100B6000A683B78384E091E09183808385EC90E055
:100B70009587848784EC90E09787868780EC90E067
:100B8000918B808B81EC90E0938B828B82EC90E058
:100B9000958B848B86EC90E0978B868B118E128ED2
:100BA000138E148ECDE6D2E08AE08A8B61E00E943B
:100BB000010161E08A890E942F018CE692E0998B05
:100BC000888BDF91CF910895789484B5826084BD3D
:100BD00084B5816084BD85B5826085BD85B5816041
:100BE00085BD80916E00816080936E0010928100BF
:100BF000809181008260809381008091810081607A
:100C0000809381008091800081608093800080913A
:100C1000B10084608093B1008091B00081608093C6
:100C2000B00080917A00846080937A0080917A008D
:100C3000826080937A0080917A00816080937A004C
:100C400080917A00806880937A001092C100E091D0
:100C5000DF01F091E00182E08083E091DB01F0911F
:100C6000DC011082E091DD01F091DE0180E1808302
:100C70001092E701E091E301F091E40186E08083C6
:100C8000E091E101F091E201808180618083E09157
:100C9000E101F091E201808188608083E091E101CF
:100CA000F091E201808180688083E091E101F09120
:100CB000E20180818F7D808342E2C42E41E0D42E08
:100CC00006E311E050E4E52EFFB6F8948091B00100
:100CD000811125C0F6018491F8019491E82FF0E08C
:100CE000EE0FFF1FEC5FFE4FA591B4918C919823FE
:100CF00021F461E08AE00E94010161E08AE00E9443
:100D00002F018CB580618CBD8CB580648CBD61E099
:100D10008DE00E942F0161E08BE00E942F01809105
:100D2000B0018F5F8093B001FFBE80E591E00E942B
:100D3000D50060E080917F020E94010180EC0E945A
:100D4000C50261E080917F020E94010165E070E0D0
:100D500080E090E00E948501E092800280E80E949D
:100D60004203882379F083ED90E00E94D40487E861
:100D700091E00E94F40468EC70E080E090E00E9452
:100D80008501A2CF8BEA90E00E94D40460E08AE261
:100D90000E94780361ED89E20E94780361E888E2AD
:100DA0000E9478038EE890E00E94D40461E080E223
:100DB0000E94990361E084E20E94990361E080E06F
:100DC0000E94990360E084E00E94990361E088E05A
:100DD0000E94990360E080E10E94990361E084E150
:100DE0000E94990360E088E10E949903C0E360E0FB
:100DF0008C2F0E94780360E080E18C0F0E947803C2
:100E000060E080E28C0F0E947803CF5FCE3379F7E9
:100E100060E080E60E94780360E080E70E9478034B
:100E200063E08BE20E9478036CE38CE00E9478031D
:100E300060E08DE00E94780344E664E680E60E946C
:100E4000ED0240E660E680E70E94ED0280918002BC
:100E50000E944203882309F41EC188E690E085CFF2
:100E600081110E94D800EB2DF0E0EE0FFF1FE6503D
:100E7000FF4FA591B4918C91A82209F482C0809172
:100E8000C2019091C301A091C401B091C50182300B
:100E9000F1E09F07A105B10509F0E7C08091B90114
:100EA0009091BA019827892798279093B801809349
:100EB000B7012FB7F8948091CB019091CC01A0910C
:100EC000CD01B091CE012FBF2091B1013091B2017F
:100ED000821B930B843F91400CF444C085E191E068
:100EE0000E9483046091B7017091B80190E080E0A6
:100EF0004AE00E9490048FE191E00E94830486E220
:100F000091E00E9483046091B60170E090E080E07F
:100F10004AE00E94900483E391E00E9483048BE303
:100F200091E00E9483046091B50170E090E080E060
:100F30004AE00E94900484E191E00E94F4042FB7FB
:100F4000F8948091CB019091CC01A091CD01B0910A
:100F5000CE012FBF8093B1019093B201A093B30152
:100F6000B093B401209729F00E94210281110E94C0
:100F70000000F6018491F701A490F801B490B1103B
:100F80006FCF80E591E00E94D50060E080917F0204
:100F90000E94010180EA0E94C50280E00E94C50211
:100FA000B82E61E080917F020E940101B0FE55C021
:100FB00081E60E94000440E061E08CE20E94ED02C4
:100FC00080916D02882389F080916E0290916F026A
:100FD000A0917002B0917102B06880936E029093FC
:100FE0006F02A0937002B093710280917B028823FC
:100FF00089F080916E0290916F02A0917002B09181
:101000007102B06480936E0290936F02A09370029D
:10101000B093710280916E0290916F02A091700264
:10102000B09171028093C2019093C301A093C40157
:10103000B093C501809172028093C101A3E7B2E031
:10104000E9EBF1E090E09F01295B31402817390777
:101050000CF015CF2D912193F6CFB1FE10CF81E783
:101060000E94000440E062E0A8CF833021E09207B4
:10107000A105B10529F48091B9018093B60119CF7A
:1010800081309140A105B10509F013CF8091B901DC
:101090008093B5010ECF8AE491E00E94F40410928F
:1010A000800280E00E94420360E082E00E942F0103
:1010B00084E691E00E94F40482E4C82E81E0D82EF8
:1010C0009EE2E92E91E0F92E0AE111E0C0E0D0E0C5
:1010D00050CFA1E21A2EAA1BBB1BFD010DC0AA1FF7
:1010E000BB1FEE1FFF1FA217B307E407F50720F091
:1010F000A21BB30BE40BF50B661F771F881F991F0C
:101100001A9469F760957095809590959B01AC0154
:10111000BD01CF010895EE0FFF1F0590F491E02D62
:061120000994F894FFCFD2
:10112600000000005702B701E401A4021502F30112
:1011360007020D0A00526F746163616F3A20002046
:1011460072706D2C200056656C6F6369646164650E
:101156003A2000206B6D2F682C20004D6172636869
:101166006120417475616C3A200043616E20696E9E
:1011760069636961646F20636F6D2073756365735E
:10118600736F21004D435032353135204C69627200
:101196006172792052656365697665204578616D6F
:1011A600706C652E2E2E004572726F207061726112
:1011B60020696E696369616C697A6172206F206368
:1011C6006F6E74726F6C61646F722043414E2100C2
:00000001FF
