:100000000C9436000C948D0B0C94B40B0C945E0085
:100010000C945E000C945E000C945E000C945E00E8
:100020000C945E000C945E000C945E000C945E00D8
:100030000C945E000C945E000C945E000C945E00C8
:100040000C949D0A0C945E000C94030D0C94350DD9
:100050000C945E000C945E000C945E000C945E00A8
:100060000C945E000C945E00870B5B0D11241FBE88
:10007000CFEFD8E0DEBFCDBF13E0A0E0B1E0E0E518
:10008000FFE102C005900D92A232B107D9F728E036
:10009000A2E2B3E001C01D92A435B207E1F710E07F
:1000A000C6E3D0E004C02197FE010E94910FC43343
:1000B000D107C9F70E94780B0C94120F0C94000022
:1000C000E2E10E9405010895E9E00E94050108951A
:1000D000EAE00E9405010895E1E00E94050108950B
:1000E000E3E00E9405010895E7E00E9405010895FC
:1000F000E5E00E9405010895E0E00E9405010895F1
:10010000E2E00E9405010895E4E00E9405010895DF
:10011000ECE00E9405010895E8E00E9405010895C1
:10012000EEE00E9405010895E4E10E9405010895B2
:10013000E0E10E9405010895E7E10E9405010895AC
:10014000E6E00E9405010895EBE00E940501089594
:10015000EDE00E9405010895EFE00E940501089579
:10016000E1E10E9405010895E3E10E94050108957F
:10017000E5E10E9405010895E6E10E940501089568
:1001800021968A929A92AA92BA92CA92DA92EA92A4
:10019000FA920A931A932197E0916D01F0916E0102
:1001A0000080F181E02DC083D1830895C0916F015B
:1001B000D0917001E881F981C081D1812196199196
:1001C0000991F990E990D990C990B990A990999026
:1001D0008990219708952F903F90E7E6F1E0CDB701
:1001E000DEB7EDBFFEBF3F922F9208952F903F9054
:1001F000CDBFDEBF3F922F920895E0E80E94050137
:100200000895E0E40E94050108952F923F924F92D5
:100210005F926F927F922FB62F92CF93DF937E2EB5
:10022000F894E0910001EF5FE0930001E13011F4F8
:100230000E94EB00E0E0E0937D01E72DE07849F0DB
:100240000E946505F0917E01F17071F00E94F20349
:100250000BC0E72DEC3140F4EE0FF0E0E352FD4F20
:100260000190F081E02D0995F0917D01EF2FE17073
:1002700059F0F27011F00E94C0008F938F2F0E94EE
:100280003C038F910E94D6002091000121502093C1
:100290000001222311F40E94F600DF91CF912F90EC
:1002A0002FBE7F906F905F904F903F902F9008955A
:1002B000FC014081FB013081842F8F7090E0B0E021
:1002C000A0E0B695A79597958795845C9C4FFC0117
:1002D0008081242F281B21704E70242B832F8F7038
:1002E00090E0B0E0A0E0B695A79597958795845CDF
:1002F0009C4FFC018081932F981B91703E70932B33
:1003000041E050E0291710F050E040E0CA010895A4
:100310008F929F92AF92BF92EF92FF920F931F9393
:10032000CF93DF937C014A015B01B694A794979425
:100330008794423051056105710580F0440F551FC7
:100340008701040F151FE401CC0FDD1FCE0DDF1D4B
:10035000B801CE010E945801892B59F4DF91CF9149
:100360001F910F91FF90EF90BF90AF909F908F9053
:100370000895F8019081818128813981318320831A
:1003800098838983B501A401D0CF4F925F926F9279
:100390007F928F929F92AF92BF92CF92DF92EF9215
:1003A000FF920F931F93CF93DF9300D000D000D024
:1003B000CDB7DEB78C016A017B01DC018C91282F5F
:1003C00030E050E040E029833A834B835C83460170
:1003D0005701880C991CAA1CBB1C29813A814B81AE
:1003E0005C81281539054A055B05B8F426960FB6D9
:1003F000F894DEBF0FBECDBFDF91CF911F910F915B
:10040000FF90EF90DF90CF90BF90AF909F908F9034
:100410007F906F905F904F900895240135013FEFDA
:10042000431A530A630A730A89819A81AB81BC819A
:1004300084159505A605B70580F0B201660F771FF4
:10044000600F711FC401880F991F800F911F0E94B8
:100450005801892B11F0530142013401660C771CBD
:10046000600E711ECC0CDD1CD801AC0DBD1DBE8311
:10047000AD83B301CD010E945801892B09F4B6CF99
:10048000ED81FE8190818181D3012D913C91119765
:10049000318320839C9311968C937501640197CFCF
:1004A000E2EFF4E040814F5F408350E070E060E0B5
:1004B000E82FEE0FFF0BE158FD4F0190F081E02D8A
:1004C000238530E0F901E45CFC4F908191509083EA
:1004D000FA01EE0FFF1FEE50FB4F220F331F9170FA
:1004E000922B9083818382EF94E00C948801E2EF59
:1004F000F4E040814F5F408350E070E060E0FA013B
:10050000EE0FFF1FEE50FB4FA82FAA0FBB0BAB58EF
:10051000BD4F0D90BC91A02D13969C91908381832B
:1005200082EF94E00C948801CF93DF93E2EFF4E044
:1005300080819FEF980F9083D281C38190E0880FD4
:10054000991F8E509B4FDC018D919C9193838283E8
:1005500041E050E060E070E0CF010E94C5018D2FC6
:100560009C2FDF91CF91089580912203811114C0B7
:100570008091750190917601A0917701B0917801F9
:100580008F3F2FEF9207A207B20741F00497A10512
:10059000B10534F481E0089584E0089580E0089581
:1005A00082E00895CF93DF93880F990BFC01E15807
:1005B000FD4F0190F081E02D0084F185E02D309712
:1005C000E1F02281211119C021E022838B589D4F37
:1005D000EC01A881B98113968C91139781832081B6
:1005E00030E0F901E45CFC4F808181508083220F70
:1005F000331F8170822B13968C93DF91CF910895D6
:10060000CF93DF93880F990BFC01E158FD4F0190C8
:10061000F081E02D0084F185E02D309761F022819A
:10062000213049F412828B589D4FEC01A881B98189
:10063000818113968C93DF91CF91089580917901F8
:1006400090917A01A0917B01B0917C01409175015C
:1006500050917601609177017091780148175907A0
:100660006A077B0741F0E0917301F091740121E08A
:1006700024830C9477020895CF93DF93D0E0C0E0F9
:10068000882389F0C0916D01D0916E01E0917101D4
:10069000F09172018481833031F081E08483809114
:1006A00075010E947702E0917301F0917401F0935B
:1006B0007201E093710180916F01909170019093AC
:1006C0006E0180936D018091790130917A012091C2
:1006D0007B0190917C01809375013093760120938A
:1006E00077019093780192E094830E94D202CE0128
:1006F000DF91CF910895809175010E940003E091F0
:100700007101F09172018281882319F085E0848360
:10071000089514820895CF93DF93282F220F330B6F
:10072000F901EB58FD4FC081D1819A8121583D4F8D
:10073000D901ED91FC912485921780F4911105C0A7
:1007400095E09C8391E090937E010E9450028A8103
:100750008F5F8A8380E0DF91CF91089584E0FBCFA3
:10076000E82FEE0FFF0BEB58FD4F0190F081E02DCD
:10077000118210820C94310B1F93CF93DF930E9450
:100780009402182F892F492F092E000C550B660B48
:10079000770B4093790150937A0160937B017093BA
:1007A0007C01292F220F330BF901EB58FD4FC0813B
:1007B000D181D0937401C093730121583D4FF90149
:1007C000208131813093700120936F019C8195309D
:1007D00019F40E94B0031B8310927E01DF91CF9128
:1007E0001F910895E0917901F0917A01EE0FFF1FBA
:1007F000EB58FD4F0190F081E02D9091F40483813E
:10080000891740F40E941E030E94BC0383E080937A
:100810007D01089580E0FBCF81E080937D010C9401
:10082000BC03EF92FF920F931F93CF93DF93C1E02E
:1008300001C0CC0F8A95EAF7209187023091880297
:1008400080917D0290917E021092F20410926E01CE
:1008500010926D013093700120936F01109272011C
:100860001092710190937401809373018FEF9FEF49
:10087000DC018093750190937601A0937701B0938A
:1008800078018093790190937A01A0937B01B093D2
:100890007C0110927D0110927E0184E00E948B0306
:1008A00008ED12E0D0E0F80181918F018C2319F05E
:1008B0008D2F0E948B03DF5FD430A9F704ED12E087
:1008C00089E4E82E82E0F82ED1E0F80181918F01D1
:1008D0008C2339F0F70180819181FC01D6870E9439
:1008E000A904F2E0EF0EF11C82E0083D180769F759
:1008F000DF91CF911F910F91FF90EF9008950E948B
:100900004C0681110E946D06E0917101F091720117
:1009100080819181892B21F0809175010E9432089C
:100920000C9495070E944C0681110E946D06E0917F
:100930007101F091720180819181892B21F0809168
:1009400075010E9432080C947D0781E08093230397
:100950000895CF92DF92EF92FF920F931F93CF9360
:10096000DF93FC01A081B1810D90BC91A02D549624
:100970008D919C915597009709F445C04285538508
:100980006485758530E020E0EC01CA84DB84EC846A
:10099000FD844C155D056E057F0508F049C08C018E
:1009A00013830283358324830115110519F0E801AF
:1009B000FD83EC832115310509F444C0E901FB8373
:1009C000EA835696CD91DC9157970A851B852C8535
:1009D0003D855096CD90DD90ED90FC9053970C1591
:1009E0001D052E053F0598F5C416D506E606F70643
:1009F00028F0401751076207730788F45796FC9355
:100A0000EE9356970CC05596FC93EE9354975796D9
:100A1000FC93EE9356971582148213821282DF9113
:100A2000CF911F910F91FF90EF90DF90CF9008959D
:100A3000EC010A811B819C010115110509F4B0CF5D
:100A4000C801A2CF5596FC93EE935497BACFC41623
:100A5000D506E606F70668F2E2CFCF93DF93DC0116
:100A6000ED91FC9111970190F081E02D8489958999
:100A70001296CD91DC9113978A179B0711F4D58BB1
:100A8000C48B868997898A179B0711F4D78BC68BED
:100A9000209731F014968D919C9115979D838C83AE
:100AA00014960D90BC91A02D109721F01396DC9315
:100AB000CE93129786899789892B21F48489958909
:100AC000978B868BDF91CF910895EF92FF920F93D2
:100AD0001F93CF93DF93FC0180912303882309F4B4
:100AE000ACC084859585A685B7850196A11DB11DED
:100AF00084879587A687B7874081518162817381FA
:100B000084179507A607B70709F097C080899189D0
:100B1000A289B3890196A11DB11D448155816681C9
:100B20007781481759076A077B0718F480E090E03F
:100B3000DC01808B918BA28BB38B14861586168675
:100B40001786C689D789209709F477C04A855B85BF
:100B50006C857D85481759076A077B0709F06DC0CA
:100B6000CE01DC011296ED90FC90E114F10469F0E5
:100B7000D7011A960D911D912D913C911D9740170B
:100B800051076207730709F45FC02C813D8121156D
:100B9000310529F0D9011396FC92EE921297E114D7
:100BA000F10429F0D70115963C932E9314972489CC
:100BB0003589C217D30711F4F58AE48AE114F104E8
:100BC00009F444C0F78AE68A8F01FC01138212827D
:100BD000EA80FB80E881F9810280F381E02DCE017B
:100BE00009958E819F81A885B9850097A105B105DA
:100BF00091F14A855B856C857D85840F951FA61FC5
:100C0000B71FF801448155816681778148175907DC
:100C10006A077B0740F44095509560957095840F66
:100C2000951FA61FB71F8A879B87AC87BD87CE01FC
:100C30000E94A904E701209759F6DF91CF911F91F7
:100C40000F91FF90EF900895C7018BCF24893589CC
:100C5000378B268BB9CF1E86EDCFFC0182810C9499
:100C60008B030E944C0680916C01089580936C0167
:100C70000E9411040E94A5040C940C040C94300BE7
:100C8000CF93C82F0E94B402811102C00E946E0B44
:100C90008C2FCF910C946400809130038130D9F077
:100CA0008091280390912903A0912A03B0912B03EE
:100CB000892B8A2B8B2B79F481E040912C03509166
:100CC0002D0360912E0370912F03452B462B472B4C
:100CD00019F480E0089581E0089510923003109295
:100CE0002C0310922D0310922E0310922F031092BA
:100CF00028031092290310922A0310922B0380914B
:100D0000240390912503A0912603B091270380939B
:100D1000310390933203A0933303B09334030895C7
:100D20000E94710B8091310390913203A0913303A3
:100D3000B09134030196A11DB11D809331039093AE
:100D40003203A0933303B093340380912C0390912A
:100D50002D03A0912E03B0912F030196A11DB11D6B
:100D600080932C0390932D03A0932E03B0932F0315
:100D7000089580912C0390912D03A0912E03B091A2
:100D80002F030097A105B10569F1409131035091FE
:100D9000320360913303709134034150510961096A
:100DA000710940933103509332036093330370937E
:100DB00034030197A109B10980932C0390932D036B
:100DC000A0932E03B0932F038091310390913203AF
:100DD000A0913303B0913403892B8A2B8B2B11F410
:100DE0000C946F0B089580912C0390912D03A0918A
:100DF0002E03B0912F03892B8A2B8B2B89F48091A2
:100E0000280390912903A0912A03B0912B03892BE9
:100E10008A2B8B2B29F40E94710B81E08093300385
:100E2000089580913003882321F0109230030C94B0
:100E30006F0B08950E94750B8091310390913203DE
:100E4000A0913303B09134030196A11DB11D80938D
:100E5000310390933203A0933303B0933403809112
:100E6000280390912903A0912A03B0912B030196A6
:100E7000A11DB11D8093280390932903A0932A03F9
:100E8000B0932B0308958091280390912903A0919A
:100E90002A03B0912B030097A105B10569F1409198
:100EA0003103509132036091330370913403415008
:100EB00051096109710940933103509332036093E2
:100EC0003303709334030197A109B1098093280378
:100ED00090932903A0932A03B0932B0380913103AD
:100EE00090913203A0913303B0913403892B8A2B64
:100EF0008B2B11F40C94730B08950E944C068823DD
:100F000011F083E1089580E00895CF93C82F0E94E7
:100F10004C068C2F0E948B03C82F80917E0181117B
:100F20000E94F2038C2FCF910895CF930E944C061C
:100F3000C3E1811101C0C0E0E0917101F091720143
:100F40008281815082830E947B0381E080937D01B6
:100F50000E94BC038C2FCF910895CF93C82F0E947D
:100F60004C06E0917101F09172018281815082837F
:100F70008C2F0E948B03C82F81110AC00E947B0313
:100F800081E080937D010E94BC038C2FCF91089556
:100F9000E0917101F091720182818F5F8283F5CFC0
:100FA000CF930E944C06C3E1811101C0C0E0809143
:100FB00075010E9400030E94F203809175019091D7
:100FC0007601A0917701B09178014091790150911B
:100FD0007A0160917B0170917C0184179507A607C7
:100FE000B70711F40E94D2028C2FCF910895CF93AE
:100FF000DF93EC010E944C06882391F083E140913D
:1010000075015091760160917701709178014430BB
:1010100051056105710534F44883DF91CF9108953E
:1010200080E0EDCF9091F0019883F7CF0F931F935D
:10103000CF93C82F8B010E944C06882389F083E14F
:10104000EC2FEE0FFF0BEB58FD4F0190F081E02DE0
:1010500094819370F8019083CF911F910F9108951F
:1010600080E0EECF880F990BFC01EB58FD4FA0817B
:10107000B181ED91FC911197309769F01D921C920E
:101080002091F00193818481228314821382E92FBD
:10109000F82F3097B9F70895CF93C82F0E944C06C8
:1010A000882381F183E1EC2FF0E0EE0FFF1FE15385
:1010B000FD4F0190F081E02D909175019283A091F8
:1010C0007101B09172012D913C911197348323836A
:1010D0001196FC93EE9313969C9113979183208124
:1010E0009695921768F430E0F901E45CFC4F90812A
:1010F00091509083220F331F9170922B13969C93E3
:10110000CF91089580E0CFCFCF93DF93C82F0E9477
:101110004C06D3E1811101C0D0E0EC2FF0E0EE0FDE
:10112000FF1FE153FD4F0190F081E02DA09171016F
:10113000B0917201818113968C931397838194816E
:101140008D939C93148213828091F00182830E947C
:10115000F2038D2FDF91CF910895DC01ED91FC9189
:1011600084819581DC01ED91FC9109941F93CF93CB
:10117000DF93182FEB010E944C06882361F183E175
:10118000E12FF0E0EE0FFF1FE75BFD4F0190F081D4
:10119000E02D0190F081E02D0190F081E02D408163
:1011A0005181628173814C835D836E837F8344812F
:1011B000558166817781488359836A837B83408523
:1011C000518562857385488759876A877B87DF9158
:1011D000CF911F91089580E0D3CF8F929F92AF92CD
:1011E000BF92CF92DF92EF92FF920F931F93CF9314
:1011F000C82F8B010E944C068823E9F183E1EC2F74
:10120000F0E0EE0FFF1FE75BFD4F0190F081E02D56
:101210009685913091F54285538564857585019059
:10122000F081E02D0190F081E02DC088D188E28826
:10123000F3884C155D056E057F0540F4848095802C
:10124000A680B780480D591D6A1D7B1D4C195D098C
:101250006E097F09F8014083518362837383CF91C4
:101260001F910F91FF90EF90DF90CF90BF90AF90C4
:101270009F908F90089580E0C2CF85E0F0CF8F924D
:101280009F92AF92BF92CF92DF92EF92FF920F9315
:101290001F93CF93DF93D82F6A017B014801590137
:1012A0000E944C06C3E1811101C0C0E0ED2FF0E0C7
:1012B000EE0FFF1FE75BFD4F0190F081E02D86856B
:1012C00081113DC0A081B1810D90BC91A02D50969F
:1012D0004D915D916D917C9153974C0D5D1D6E1DEF
:1012E0007F1D14968D919D910D90BC91A02D84171A
:1012F0009507A607B70740F4481B590B6A0B7B0BF1
:101300004150510961097109428753876487758784
:1013100086829782A086B18681E08687CF010E946F
:10132000A9048C2FDF91CF911F910F91FF90EF9027
:10133000DF90CF90BF90AF909F908F900895C7E0BF
:10134000F0CF8F929F92AF92BF92CF92DF92EF92A7
:10135000FF920F931F93CF93DF93C82F4A015B0136
:10136000680179010E944C06D3E1811101C0D0E0EF
:10137000EC2FF0E0EE0FFF1FE75BFD4F0190F081D7
:10138000E02D868581111BC082869386A486B58652
:10139000C682D782E086F18681E08687CF010E94EF
:1013A000A9048D2FDF91CF911F910F91FF90EF90A6
:1013B000DF90CF90BF90AF909F908F900895D7E02F
:1013C000F0CF0F931F93CF93DF93C82F0E944C064B
:1013D000D3E1811101C0D0E0EC2FF0E0EE0FFF1F50
:1013E000E75BFD4F00811181F8018685813059F45A
:1013F000C8010E942D05F80116868D2FDF91CF912F
:101400001F910F910895D5E0F8CF26E040E052EC0F
:1014100061E070E081E593E00C94540E8091390313
:1014200090913A03019690933A038093390361EFC8
:1014300071E081E593E00E94170C6091390370918F
:101440003A034AE050E081E593E00E94F10C0C94ED
:101450008C00809137039091380301969093380364
:101460008093370365E072E081E593E00E94170CFA
:1014700060913703709138034AE050E081E593E0D2
:101480000E94F10C0C948C008091350390913603EE
:101490000196909336038093350369E172E081E50C
:1014A00093E00E94170C60913503709136034AE077
:1014B00050E081E593E00E94F10C0C948C00CF93F6
:1014C0000E94020F63E070E00E94150FC091D202EB
:1014D0008130910531F0C091D302029711F4C0918F
:1014E000D1026BE373E08C2F0E949C006DE272E0EE
:1014F00081E593E00E94170C6C2FCC0F770B6F5F88
:101500007F4F4AE050E081E593E00E94BE0C6EE31D
:1015100072E081E593E00E94170C4AE050E0609190
:101520003B0381E593E00E94D90CCF910C948C0091
:101530008FEC91E00C94FD0008951F920F920FB66E
:101540000F9211242F933F934F935F936F937F9349
:101550008F939F93AF93BF93EF93FF938091480333
:1015600090914903A0914A03B0914B0330914703F6
:1015700023E0230F2D3798F50196A11DB11D20936F
:1015800047038093480390934903A0934A03B09381
:101590004B0380914C0390914D03A0914E03B09169
:1015A0004F030196A11DB11D80934C0390934D03F1
:1015B000A0934E03B0934F030E94980AFF91EF91BE
:1015C000BF91AF919F918F917F916F915F914F915B
:1015D0003F912F910F900FBE0F901F90189526E806
:1015E000230F0296A11DB11DCACF84B5826084BDB0
:1015F00084B5816084BD85B5826085BD85B5816017
:1016000085BDEEE6F0E0808181608083E1E8F0E076
:101610001082808182608083808181608083E0E8A5
:10162000F0E0808181608083E1EBF0E08081846084
:101630008083E0EBF0E0808181608083EAE7F0E086
:1016400080818460808380818260808380818160EA
:1016500080838081806880831092C1000895FFCFCD
:10166000FFCFCF93DF93880F990BFC01E158FD4F1B
:10167000C081D181EC81FD8131978A819B81E80F06
:10168000F91F8D85DF011197823029F584E890E0FC
:1016900080839C939E818F81DF0112979C93119789
:1016A0008C93CF0104979F01295031091E92A217F4
:1016B000B307E1F720E8DF011A972C9342971E92B7
:1016C000A817B907E1F7A881B9817797ED93FC9343
:1016D000DF91CF91089580EA90E0DACF0895789471
:1016E0000895F894089578940895F89408950895C5
:1016F0000E94F50A0E94770B0E949C0A0E94050A2C
:10170000809150030E94400690E080E0089580910F
:10171000DC0280935003089508951F920F920FB634
:101720000F9211242F933F934F935F936F937F9367
:101730008F939F93AF93BF93EF93FF93E091EC014F
:10174000F091ED010995FF91EF91BF91AF919F91BC
:101750008F917F916F915F914F913F912F910F905A
:101760000FBE0F901F9018951F920F920FB60F92F9
:1017700011242F933F934F935F936F937F938F9396
:101780009F93AF93BF93EF93FF93E091EE01F0919E
:10179000EF010995FF91EF91BF91AF919F918F91CB
:1017A0007F916F915F914F913F912F910F900FBE5D
:1017B0000F901F901895AF92BF92CF92DF92EF9249
:1017C000FF920F931F93CF93DF936C017B018B01EB
:1017D000040F151FEB015E01AE18BF08C017D1073B
:1017E00059F06991D601ED91FC910190F081E02DC5
:1017F000C6010995892B79F7C501DF91CF911F911A
:101800000F91FF90EF90DF90CF90BF90AF90089531
:10181000FB0101900020E9F73197AF01461B570B00
:10182000DC01ED91FC910280F381E02D09946115BA
:10183000710511F00C94080C90E080E00895DC0133
:10184000ED91FC910190F081E02D09946DE073E041
:101850000C94080C8F929F92AF92BF92EF92FF92DE
:101860000F931F93CF93DF93CDB7DEB7A1970FB63A
:10187000F894DEBF0FBECDBF7C01FA01CB0119A2E7
:10188000223008F42AE08E010F5D1F4F822E912C2A
:10189000B12CA12CBF01A50194010E94290FF901CF
:1018A000CA016A300CF5605DD8016E938D01232B5F
:1018B000242B252B79F790E080E0109721F0BD01D3
:1018C000C7010E94080CA1960FB6F894DEBF0FBEA8
:1018D000CDBFDF91CF911F910F91FF90EF90BF90FF
:1018E000AF909F908F900895695CDECFCF92DF928A
:1018F000EF92FF920F931F93CF93DF932115310542
:1019000081F4DC01ED91FC910190F081E02D642FD8
:10191000DF91CF911F910F91FF90EF90DF90CF90CB
:1019200009942A30310501F52AE077FF1DC06A01CC
:101930007B01EC016DE20E941F0C8C0144275527AE
:10194000BA014C195D096E097F092AE0CE010E9497
:101950002A0C800F911FDF91CF911F910F91FF9063
:10196000EF90DF90CF900895DF91CF911F910F916D
:10197000FF90EF90DF90CF900C942A0C9A01AB016E
:10198000770F660B770B0C94760C2115310541F41B
:10199000DC01ED91FC910190F081E02D642F099420
:1019A0000C942A0C9A01462F50E070E060E00C94F1
:1019B000C50C0F931F93CF93DF93EC010E94D20CC1
:1019C0008C01CE010E94260C800F911FDF91CF91D8
:1019D0001F910F9108959A01AB0170E060E00C94A3
:1019E000C50C0F931F93CF93DF93EC010E94EB0C78
:1019F0008C01CE010E94260C800F911FDF91CF91A8
:101A00001F910F9108951F920F920FB60F921124FC
:101A10002F938F939F93EF93FF93E0916103F09146
:101A200062038081E0916703F091680382FD1BC02F
:101A3000908180916A038F5F8F7320916B0382176F
:101A400041F0E0916A03F0E0EF5AFC4F958F8093EC
:101A50006A03FF91EF919F918F912F910F900FBE8D
:101A60000F901F9018958081F4CF1F920F920FB6A0
:101A70000F9211242F933F934F935F936F937F9314
:101A80008F939F93AF93BF93EF93FF9381E593E081
:101A90000E94C50DFF91EF91BF91AF919F918F91E2
:101AA0007F916F915F914F913F912F910F900FBE5A
:101AB0000F901F901895E1E5F3E01382128288EEF3
:101AC00093E0A0E0B0E084839583A683B78384E1AC
:101AD00093E09183808385EC90E09587848784EC04
:101AE00090E09787868780EC90E0918B808B81ECEB
:101AF00090E0938B828B82EC90E0958B848B86ECCC
:101B000090E0978B868B118E128E138E148E089513
:101B1000FC01918D228D892F90E0805C9F4F821B6C
:101B200091098F7399270895FC01918D828D9817E3
:101B300031F0828DE80FF11D858D90E008958FEFD3
:101B40009FEF0895FC01918D828D981761F0A28D11
:101B5000AE0FBF2FB11D5D968C91928D9F5F9F73CD
:101B6000928F90E008958FEF9FEF0895FC01538DC1
:101B7000448D252F30E0842F90E0821B930B541767
:101B800010F0CF96089501970895FC01A48DA80F39
:101B9000B92FB11DA35ABF4F2C91848D90E00196AF
:101BA0008F739927848FA689B7892C93A089B189CF
:101BB0008C91837080648C93938D848D981306C070
:101BC0000288F389E02D80818F7D80830895CF93F3
:101BD000DF93EC01888D8823B9F0AA89BB89E88955
:101BE000F9898C9185FD03C0808186FD0DC00FB6FB
:101BF00007FCF7CF8C9185FFF2CF808185FFEDCF79
:101C0000CE010E94C50DE9CFDF91CF910895EF92EB
:101C1000FF920F931F93CF93DF93EC0181E0888FA6
:101C20009B8D8C8D98131AC0E889F989808185FF76
:101C300015C09FB7F894EE89FF896083E889F98918
:101C400080818370806480839FBF81E090E0DF911A
:101C5000CF911F910F91FF90EF900895F62E0B8D6D
:101C600010E00F5F1F4F0F731127E02E8C8D8E1128
:101C70000CC00FB607FCFACFE889F989808185FF8F
:101C8000F5CFCE010E94C50DF1CFEB8DEC0FFD2FEE
:101C9000F11DE35AFF4FF0829FB7F8940B8FEA894A
:101CA000FB8980818062CFCFCF92DF92EF92FF924B
:101CB0001F93CF93DF93EC016A017B01122FE88918
:101CC000F98982E08083C11481EED806E104F10431
:101CD000A1F060E079E08DE390E0A70196010E9419
:101CE000290F2150310941095109569547953795DA
:101CF0002795211580E1380798F0E889F989108245
:101D000060E874E88EE190E0A70196010E94290F37
:101D10002150310941095109569547953795279525
:101D2000EC85FD853083EE85FF852083188EEC8958
:101D3000FD891083EA89FB89808180618083EA893B
:101D4000FB89808188608083EA89FB898081806843
:101D50008083EA89FB8980818F7D8083DF91CF91A9
:101D60001F91FF90EF90DF90CF9008958F929F92F8
:101D7000AF92BF92CF92DF92EF92FF92CF93DF9319
:101D8000EC01688179818A819B81611571058105EA
:101D9000910521F464E279ED8BE597E02DE133EFD5
:101DA00041E050E00E944B0F49015A019B01AC01F8
:101DB000A7EAB1E40E946A0F6B017C01ACEEB4EFBC
:101DC000A50194010E94780FDC01CB018C0D9D1DB3
:101DD000AE1DBF1DB7FF03C00197A109B04888839E
:101DE0009983AA83BB839F77DF91CF91FF90EF9078
:101DF000DF90CF90BF90AF909F908F9008950E94FA
:101E0000B60E089588E691E00E94B60E0895B0E0FF
:101E1000A0E08093680190936901A0936A01B09358
:101E20006B010895F8940C94A60F97FB072E16F4F7
:101E3000009407D077FD09D00E947D0F07FC05D0E4
:101E40003EF4909581959F4F0895709561957F4FD1
:101E50000895A1E21A2EAA1BBB1BFD010DC0AA1FEB
:101E6000BB1FEE1FFF1FA217B307E407F50720F003
:101E7000A21BB30BE40BF50B661F771F881F991F7E
:101E80001A9469F760957095809590959B01AC01C7
:101E9000BD01CF010895052E97FB1EF400940E940A
:101EA000620F57FD07D00E94290F07FC03D04EF4A4
:101EB0000C94620F50954095309521953F4F4F4FB0
:101EC0005F4F089590958095709561957F4F8F4FE6
:101ED0009F4F08950E94970FA59F900DB49F900D5E
:101EE000A49F800D911D11240895B7FF0C946A0FD3
:101EF0000E946A0F821B930B0895AA1BBB1B51E122
:101F000007C0AA1FBB1FA617B70710F0A61BB70B69
:101F1000881F991F5A95A9F780959095BC01CD010E
:101F20000895EE0FFF1F0590F491E02D0994A29FF4
:101F3000B001B39FC001A39F700D811D1124911D9D
:101F4000B29F700D811D1124911D0895F894FFCF4B
:101F50000000000000000000000000000000000081
:101F60000000000000000000000000000000000071
:101F70000000000000000000000000000000000061
:101F80000000000000000000000000000000000051
:101F90000000000000000000000000000000000041
:101FA0000000000000000000000000000000000031
:101FB000000000000000000001000000FF0000C160
:101FC0000200004203FFFFFFFFFFFFFFFF00005181
:101FD0000200000000E8030000E8030000025A02CB
:101FE00000000000BC020000BC020000026302000E
:101FF0000000005802000058020000026C020000BD
:102000000000F4010000F4010000020000000400E0
:1020100000000003000000000200000000010001B9
:10202000000000FFFF0000010000000000000000B1
:10203000000000000000000500FF00008C0B8C0B6E
:10204000FF5461736B3120666F692061746976613A
:1020500064613A20005461736B3220666F692061BD
:102060007469766164613A20005461736B33206651
:102070006F6920617469766164613A20005461730C
:102080006B206573636F6C686964613A20002C2073
:102090005374617475733A2000AC019D018E017F09
:1020A00001CF01AD0857022D0603CF01AD08600234
:1020B0002D0602CF01AD0869022D0601CF01AD0842
:1020C00072022D0600CA01C501C001BB014203B363
:1020D00002A50297028902C102F004FE0400015F1A
:1020E0000A0000030401000207FE050001440A0083
:1020F0000002030100EE04EE030001290A000001C2
:102100000201000007540700010E0A00000001014F
:1021100000FE06040750002F0B000004000100E73A
:10212000010201000101010100000000004307114C
:10213000071A07F306920490067F04B9069507363E
:10214000063E064C0885078408AD07B608F707ED7C
:102150000831063F09D007A109E10916080D0A0058
:1021600000000000070EDB0BB60DE70D880DA20D79
:02217000940DCC
:00000001FF
