:020000040000FA
:100000000C94AB000C94D3000C94D3000C94D3004C
:100010000C94D3000C94D3000C94D3000C94D30014
:100020000C94D3000C94D3000C94D3000C94D30004
:100030000C94D3000C94D3000C94D3000C94D300F4
:100040000C9447040C94D3000C94B7040C949104C2
:100050000C94D3000C94D3000C94D3000C94D300D4
:100060000C94D3000C94D30052657475726E696E53
:100070006720746F2050726576696F7573204D6FBD
:100080006465204661696C7572652E2E2E0053657D
:100090007474696E6720426175647261746520537F
:1000A00075636365737366756C2100456E74657264
:1000B000696E6720436F6E66696775726174696FF8
:1000C0006E204D6F64652053756363657373667549
:1000D0006C2100456E746572696E6720436F6E66B1
:1000E000696775726174696F6E204D6F6465204633
:1000F00061696C7572652E2E2E00000000002400D0
:1001000027002A0000000000250028002B00000026
:10011000000023002600290004040404040404044D
:1001200002020202020203030303030301020408A2
:100130001020408001020408102001020408102051
:100140000000000800020100000304070000000096
:1001500000000000E90411241FBECFEFD8E0DEBF8D
:10016000CDBF11E0A0E0B1E0E2E6F0E102C0059011
:100170000D92AC3AB107D9F722E0ACEAB1E001C088
:100180001D92AB37B207E1F710E0CBEAD0E004C034
:100190002197FE010E942908CA3AD107C9F70E9497
:1001A00029050C942F080C9400008CBD9DBD08956A
:1001B000833081F028F4813099F08230A9F00895DD
:1001C0008730A9F08830C9F08430B1F48091800084
:1001D0008F7D03C0809180008F7780938000089589
:1001E00084B58F7784BD089584B58F7DFBCF8091D2
:1001F000B0008F778093B00008958091B0008F7D1C
:10020000F9CFCF93DF93282F30E0F901E05CFE4F68
:100210008491F901E45DFE4FD491F901E85EFE4F4F
:10022000C491CC23A1F081110E94D800EC2FF0E002
:10023000EE0FFF1FE25FFE4FA591B491EC91ED230D
:1002400081E090E009F480E0DF91CF91089580E0B3
:1002500090E0FACF1F93CF93DF93282F30E0F9017E
:10026000E05CFE4F8491F901E45DFE4FD491F90109
:10027000E85EFE4FC491CC23A9F0162F81110E9495
:10028000D800EC2FF0E0EE0FFF1FEC5FFE4FA591C2
:10029000B4918FB7F894EC91111108C0D095DE237A
:1002A000DC938FBFDF91CF911F910895DE2BF8CFA4
:1002B000CF93DF9390E0FC01E45DFE4F2491885ED4
:1002C0009E4FFC0184918823D1F090E0880F991F04
:1002D000FC01E650FF4FA591B491FC01EC5FFE4F8D
:1002E000C591D49161110EC09FB7F8948C91E22F03
:1002F000E0958E238C932881E223E8839FBFDF91D2
:10030000CF9108958FB7F894EC91E22BEC938FBFC7
:10031000F6CF3FB7F8948091C1019091C201A091AE
:10032000C301B091C40126B5A89B05C02F3F19F0A9
:100330000196A11DB11D3FBFBA2FA92F982F882765
:10034000BC01CD01620F711D811D911D42E0660F40
:10035000771F881F991F4A95D1F708958F929F9212
:10036000AF92BF92CF92DF92EF92FF924B015C016E
:100370000E9489016B017C010E9489016C197D0931
:100380008E099F09683E734081059105A8F321E01D
:10039000821A9108A108B10888EEC80E83E0D81E21
:1003A000E11CF11C81149104A104B10429F7FF9010
:1003B000EF90DF90CF90BF90AF909F908F90089577
:1003C000AF92BF92CF92DF92EF92FF920F931F9363
:1003D000CF93DF936C017B018B01040F151FEB01A1
:1003E0005E01AE18BF08C017D10759F06991D60158
:1003F000ED91FC910190F081E02DC6010995892BCA
:1004000079F7C501DF91CF911F910F91FF90EF9088
:10041000DF90CF90BF90AF900895FC01538D448D35
:10042000252F30E0842F90E0821B930B541710F09F
:10043000CF96089501970895FC01918D828D9817AC
:1004400061F0A28DAE0FBF2FB11D5D968C91928D84
:100450009F5F9F73928F90E008958FEF9FEF0895B5
:10046000FC01918D828D981731F0828DE80FF11D7E
:10047000858D90E008958FEF9FEF0895FC01918D99
:10048000228D892F90E0805C9F4F821B91098F7392
:100490009927089589EC91E00E943E0221E0892B82
:1004A00009F420E0822F089580E090E0892B29F064
:1004B0000E944A0281110C9400000895FC01A48D51
:1004C000A80FB92FB11DA35ABF4F2C91848D90E076
:1004D00001968F739927848FA689B7892C93A08959
:1004E000B1898C91837080648C93938D848D9813E3
:1004F00006C00288F389E02D80818F7D8083089576
:10050000EF92FF920F931F93CF93DF93EC0181E063
:10051000888F9B8D8C8D98131AC0E889F98980810A
:1005200085FF15C09FB7F894EE89FF896083E8893D
:10053000F98980818370806480839FBF81E090E02F
:10054000DF91CF911F910F91FF90EF900895F62EBC
:100550000B8D10E00F5F1F4F0F731127E02E8C8D56
:100560008E110CC00FB607FCFACFE889F98980819B
:1005700085FFF5CFCE010E945E02F1CFEB8DEC0F2F
:10058000FD2FF11DE35AFF4FF0829FB7F8940B8FB8
:10059000EA89FB8980818062CFCFCF93DF93EC0122
:1005A000888D8823B9F0AA89BB89E889F9898C915B
:1005B00085FD03C0808186FD0DC00FB607FCF7CF17
:1005C0008C9185FFF2CF808185FFEDCFCE010E9417
:1005D0005E02E9CFDF91CF91089508958EBD0000AE
:1005E0000DB407FEFDCF8EB508951F93CF93DF9313
:1005F000182F80E591E00E94D500C7E6D2E060E0C8
:100600008A890E942A0183E00E94EE02812F0E94C3
:10061000EE0280E00E94EE02182F61E08A890E94BB
:100620002A01812FDF91CF911F910895FF920F939F
:100630001F93CF93DF93F82E062F142F80E591E0C0
:100640000E94D500C7E6D2E060E08A890E942A01B4
:1006500085E00E94EE028F2D0E94EE02802F0E9404
:10066000EE02812F0E94EE0261E08A89DF91CF9134
:100670001F910F91FF900C942A01CF93DF93D82FF5
:100680002FB7F8948091C5019091C601A091C70140
:10069000B091C8012FBFC82F4D2F60EE8FE00E9490
:1006A00016038EE00E94F502807ED81791F02FB7D6
:1006B000F8948091C5019091C601A091C701B091B5
:1006C000C8012FBF8C1B893C38F381E0DF91CF91AB
:1006D000089580E0FBCFCF93DF93C82F8EE00E9478
:1006E000F502807E8032F9F4C032E9F08BE20E949C
:1006F000F502D82FD07486FD05C040E460E48BE29B
:100700000E94160340E460E48CE20E94160380E637
:100710000E943D03811111C0D11105C040E060E489
:100720008BE20E94160340E060E48CE20E94160314
:100730008C2FDF91CF910C943D0381E0DF91CF911D
:1007400008950F931F93CF93DF93082F162F80E503
:1007500091E00E94D500C7E6D2E060E08A890E945D
:100760002A0182E00E94EE02802F0E94EE02812F79
:100770000E94EE0261E08A89DF91CF911F910F9173
:100780000C942A01FF920F931F93CF93DF93C82FEE
:10079000F62E172F042F80E591E00E94D50060E02F
:1007A000809179020E942A0182E00E94EE028C2F41
:1007B0000E94EE02CF2DD12F0C0F1D2F111DC0173F
:1007C000D10721F089910E94EE02F9CF61E080917A
:1007D0007902DF91CF911F910F91FF900C942A0124
:1007E000CF93DF9300D000D0CDB7DEB71C821B8241
:1007F000613081F498E09A83198244E0BE016F5F12
:100800007F4F0E94C2030F900F900F900F90DF91C7
:10081000CF9108951A82F0CFFC0101900020E9F7F2
:100820003197AF01481B590BBC0189EC91E00C9446
:10083000E001CF93DF930E940C04EC0185E191E08D
:100840000E940C048C0F9D1FDF91CF9108950F9390
:100850001F93CF93DF938C01D0E0C0E0F801EC0F41
:10086000FD1F6491662341F089EC91E00E948002B3
:10087000892B11F02196F2CF85E191E00E940C04C2
:100880008C0F9D1FDF91CF911F910F9108951F92A3
:100890000F920FB60F9211242F933F938F939F9334
:1008A000AF93BF938091C5019091C601A091C701FC
:1008B000B091C8013091C00123E0230F2D3758F5C6
:1008C0000196A11DB11D2093C0018093C501909395
:1008D000C601A093C701B093C8018091C101909156
:1008E000C201A091C301B091C4010196A11DB11D27
:1008F0008093C1019093C201A093C301B093C4013E
:10090000BF91AF919F918F913F912F910F900FBE0B
:100910000F901F90189526E8230F0296A11DB11D78
:10092000D2CF1F920F920FB60F9211242F933F93A5
:100930004F935F936F937F938F939F93AF93BF93E7
:10094000EF93FF9389EC91E00E945E02FF91EF919B
:10095000BF91AF919F918F917F916F915F914F91D7
:100960003F912F910F900FBE0F901F9018951F92DF
:100970000F920FB60F9211242F938F939F93EF93A3
:10098000FF93E091D901F091DA018081E091DF01DC
:10099000F091E00182FD1BC090818091E2018F5FA8
:1009A0008F732091E301821741F0E091E201F0E0C2
:1009B000E753FE4F958F8093E201FF91EF919F9156
:1009C0008F912F910F900FBE0F901F9018958081DF
:1009D000F4CFCF93DF93E9ECF1E01382128288EE3B
:1009E00093E0A0E0B0E084839583A683B78387E09B
:1009F00091E09183808385EC90E09587848784ECF7
:100A000090E09787868780EC90E0918B808B81ECDB
:100A100090E0938B828B82EC90E0958B848B86ECBC
:100A200090E0978B868B118E128E138E148EC7E6F4
:100A3000D2E08AE08A8B61E00E942A0161E08A8923
:100A40000E94580186E692E0998B888BDF91CF91C6
:100A50000895CF93DF93CDB7DEB7A3970FB6F89481
:100A6000DEBF0FBECDBF789484B5826084BD84B5EF
:100A7000816084BD85B5826085BD85B5816085BD99
:100A800080916E00816080936E0010928100809151
:100A900081008260809381008091810081608093D9
:100AA0008100809180008160809380008091B100FE
:100AB00084608093B1008091B00081608093B00029
:100AC00080917A00846080937A0080917A008260BD
:100AD00080937A0080917A00816080937A0080917F
:100AE0007A00806880937A001092C100E091D90169
:100AF000F091DA0182E08083E091D501F091D60196
:100B00001082E091D701F091D80180E180831092AA
:100B1000E101E091DD01F091DE0186E08083E0916A
:100B2000DB01F091DC01808180618083E091DB0159
:100B3000F091DC01808188608083E091DB01F0919D
:100B4000DC01808180688083E091DB01F091DC0131
:100B500080818F7D808352E2A52E51E0B52E66E321
:100B6000E62E61E0F62E70E4C72EDFB6F894809191
:100B7000AC01811125C0F5018491F7019491E82F12
:100B8000F0E0EE0FFF1FE650FF4FA591B4918C915E
:100B9000982321F461E08AE00E942A0161E08AE062
:100BA0000E9458018CB580618CBD8CB580648CBD71
:100BB00061E08DE00E94580161E08BE00E945801E5
:100BC0008091AC018F5F8093AC01DFBE80E591E046
:100BD0000E94D50060E0809179020E942A0180EC99
:100BE0000E94EE0261E0809179020E942A0165E094
:100BF00070E080E090E00E94AE01C0927A0280E84E
:100C00000E946B03882379F083ED90E00E94270413
:100C100083E891E00E94190468EC70E080E090E0C5
:100C20000E94AE01A2CF8BEA90E00E94270460E010
:100C30008AE20E94A10361ED89E20E94A10361E8BA
:100C400088E20E94A1038EE890E00E94270461E000
:100C500080E20E94F00361E084E20E94F00361E020
:100C600080E00E94F00360E084E00E94F00361E015
:100C700088E00E94F00360E080E10E94F00361E000
:100C800084E10E94F00360E088E10E94F00310E339
:100C900060E0812F0E94A10360E080E1810F0E944B
:100CA000A10360E080E2810F0E94A1031F5F1E3359
:100CB00079F760E080E60E94A10360E080E70E948F
:100CC000A10363E08BE20E94A1036CE38CE00E942D
:100CD000A10360E08DE00E94A10344E664E680E6A3
:100CE0000E94160340E660E680E70E9416038091AA
:100CF0007A020E946B03882309F45EC188E690E0C3
:100D000085CFEAA1FBA1E017F10709F035C110E09A
:100D100002E03DC1843C9940A105B10508F047C1FE
:100D200040916C026DE672E085E0810F0E94C20383
:100D300080917502813029F480916C0280648093E7
:100D40006C0260916C0284E0810F0E94A10380918B
:100D5000680290916902A0916A02B0916B022091A1
:100D600067022130C9F58C839B83CD01AA27BB275D
:100D7000282F220F220F220F207E382F3370386049
:100D8000232B2A8335E0969587953A95E1F7898359
:100D900044E0632D772D812F0E94C203115048E05B
:100DA00068E0812F0E9416030E9489014B015C01BB
:100DB000812F0E94F502082F0E948901DC01CB01DE
:100DC00088199909AA09BB0903FF14C0843C9940FA
:100DD000A105B10568F3EBC09C0193E0369527951A
:100DE0009A95E1F729838295880F807E8A831C82F9
:100DF0001B82CECF843C9940A105B10508F0D7C035
:100E000088E191E00E94190486E391E00E940C04BD
:100E10002091B10130E050E040E019A28E010F5D59
:100E20001F4FCA01B901A70196010E940708605D22
:100E3000D8016E938D01211531054105510589F7C2
:100E4000109719F0CD010E940C0485E191E00E94F9
:100E50000C042FB7F8948091C5019091C601A09120
:100E6000C701B091C8012FBF8093AD019093AE012F
:100E7000A093AF01B093B001E0E0F0E0EF2B29F0D8
:100E80000E944A0281110E94000082E10E94010139
:100E90008C019093BF018093BE0183E10E94010108
:100EA0009C010115110569F48091BC019091BD016F
:100EB000019739F49091BB01992319F091509093C7
:100EC000BB011093BD010093BC012115310569F4EC
:100ED0008091B9019091BA01019739F49091BB01C9
:100EE000953018F49F5F9093BB013093BA01209323
:100EF000B9018091BB018093B1012FB7F894809123
:100F0000C5019091C601A091C701B091C8012FBF42
:100F10002091AD013091AE01821B930B883C91056D
:100F20000CF4AACF81E091E0A0E0B0E080936802E9
:100F300090936902A0936A02B0936B0210927502BB
:100F40001092670298E090936C02E1EBF1E0ADE65D
:100F5000B2E081918D9389EB91E08E179F07C9F7DD
:100F60000E9489014B015C0149825A826B828E0189
:100F70000F5F1F4F302E712ED8012D908D01822DC5
:100F80000E94F50283FDBDCE11E0120D00E00E942B
:100F90008901DC01CB0188199909AA09BB09023032
:100FA00009F0B8CE843C9940A105B105E8F28FE381
:100FB00091E00E94190460CF80E691E00E9419043C
:100FC00010927A0280E00E946B0360E082E10E944E
:100FD000580160E083E10E94580181E090E0909325
:100FE000BD018093BC019093BA018093B9014090F8
:100FF00000015090010160900201CE0104969BA374
:101000008AA38AE0C82ED12CE12CF12C3ECFA1E29C
:101010001A2EAA1BBB1BFD010DC0AA1FBB1FEE1F72
:10102000FF1FA217B307E407F50720F0A21BB30BBD
:10103000E40BF50B661F771F881F991F1A9469F739
:1010400060957095809590959B01AC01BD01CF0195
:101050000895EE0FFF1F0590F491E02D0994F89488
:10106000FFCF304050000000008002E0010D02CDB3
:10107000023E021C0230020D0A004D656E7361676C
:10108000656D204D41524348413A205472616E7360
:101090006D697469646121004D41524348413A20B1
:1010A000004572726F206E61207472616E736D699B
:1010B0007373616F206461206D656E736167656D28
:1010C000210043616E2073656E6420696E696369F7
:1010D000616C697A61646F20636F6D2073756365FD
:1010E00073736F21004572726F20706172612069A5
:1010F0006E696369616C697A6172206F20636F6EDB
:0E11000074726F6C61646F722043414E210067
:107E0000112484B714BE81FFF0D085E080938100F7
:107E100082E08093C00088E18093C10086E0809377
:107E2000C20080E18093C4008EE0C9D0259A86E02C
:107E300020E33CEF91E0309385002093840096BBD3
:107E4000B09BFECF1D9AA8958150A9F7CC24DD24C4
:107E500088248394B5E0AB2EA1E19A2EF3E0BF2EE7
:107E6000A2D0813461F49FD0082FAFD0023811F036
:107E7000013811F484E001C083E08DD089C08234E0
:107E800011F484E103C0853419F485E0A6D080C0E4
:107E9000853579F488D0E82EFF2485D0082F10E0AE
:107EA000102F00270E291F29000F111F8ED06801E7
:107EB0006FC0863521F484E090D080E0DECF843638
:107EC00009F040C070D06FD0082F6DD080E0C81688
:107ED00080E7D80618F4F601B7BEE895C0E0D1E017
:107EE00062D089930C17E1F7F0E0CF16F0E7DF06D8
:107EF00018F0F601B7BEE89568D007B600FCFDCFD4
:107F0000A601A0E0B1E02C9130E011968C91119780
:107F100090E0982F8827822B932B1296FA010C0160
:107F200087BEE89511244E5F5F4FF1E0A038BF0790
:107F300051F7F601A7BEE89507B600FCFDCF97BE46
:107F4000E89526C08437B1F42ED02DD0F82E2BD052
:107F50003CD0F601EF2C8F010F5F1F4F84911BD097
:107F6000EA94F801C1F70894C11CD11CFA94CF0C13
:107F7000D11C0EC0853739F428D08EE10CD085E9AC
:107F80000AD08FE07ACF813511F488E018D01DD067
:107F900080E101D065CF982F8091C00085FFFCCF94
:107FA0009093C60008958091C00087FFFCCF809118
:107FB000C00084FD01C0A8958091C6000895E0E648
:107FC000F0E098E1908380830895EDDF803219F02E
:107FD00088E0F5DFFFCF84E1DECF1F93182FE3DFCA
:107FE0001150E9F7F2DF1F91089580E0E8DFEE27F6
:047FF000FF270994CA
:027FFE00040479
:00000001FF
